:100000000C9434000C9451000C9451000C94510049
:100010000C9451000C9453000C9451000C9451001A
:100020000C9451000C9451000C9451000C9451000C
:100030000C9451000C9451000C9451000C945100FC
:100040000C9451000C9451000C9451000C945100EC
:100050000C9451000C9451000C9451000C945100DC
:100060000C9451000C94510011241FBECFEFD8E026
:10007000DEBFCDBF11E0A0E0B1E0E2EDF3E002C0F1
:1000800005900D92A433B107D9F711E0A4E3B1E0D4
:1000900001C01D92A435B107E1F70E94CA000C947B
:1000A000E7010C9400001F920F920FB60F921124DB
:1000B0002F933F934F935F936F937F938F939F9370
:1000C000AF93EF93FF934A994AC087ED91E020E008
:1000D00001972FEF8F3F9207D9F750E020E030E0F3
:1000E000E6EBF3E0A0E061E070E0CF014A2F01977A
:1000F0004FEF8F3F9407D9F74A9B09C0CB01022EDF
:1001000002C0880F991F0A94E2F7582B09C0CB014F
:10011000022E02C0880F991F0A94E2F78095582397
:100120002F5F3F4F2830310501F786EB93E020E049
:1001300001972FEF8F3F9207D9F7E0914201F0E04E
:10014000EB5CFE4F5083809142018F5F80934201B0
:10015000809142018C3019F481E080934101FF913C
:10016000EF91AF919F918F917F916F915F914F919F
:100170003F912F910F900FBE0F901F9018958823DD
:1001800029F08FB780933401F89408958091340159
:100190008FBF0895CF92DF92FF920F931F93DF934B
:1001A000CF9300D0CDB7DEB781E00E945D0180E241
:1001B0009EE420E931E0F9013197F1F70197D9F791
:1001C00080E091E00E948101109241011092420171
:1001D000539A5A9A80916800846080936800809155
:1001E0006D00846080936D008FB780688FBF5B98CF
:1001F00083EB93E020E001972FEF8F3F9207D9F731
:100200006E010894C11CD11C809141018823E1F347
:10021000809135018A3011F584E191E00E948101DD
:1002200006E311E0FF24F394F801808190E0B60129
:1002300040E150E00E94A2010E948101FAE0FF1615
:1002400019F08AE30E947901F3940F5F1F4F8BE04E
:10025000F81651F780E291E00E948101109242016C
:1002600010924101D1CF0F931F93CF93DF939C0145
:10027000EB01CB0102970F9718F000E010E017C0D8
:100280001092530103E511E0C901BE010E94D301A0
:10029000FC01EE5DFE4F8081F80182938F01C90160
:1002A000BE010E94D3019B016115710569F7C80168
:1002B000DF91CF911F910F910895823019F0833013
:1002C00051F405C081E08093C50080EA07C0109218
:1002D000C50089E103C01092C50087E68093C40081
:1002E0008091C0008D7F8093C00088E18093C10021
:1002F0000895982F8091C00085FFFCCF9093C60091
:100300000895FC0107C08091C00085FFFCCF3196A5
:100310009093C60090819923B1F70895FC0107C01E
:100320008091C00085FFFCCF31969093C6009491D8
:100330009923B1F708958091C00087FFFCCF809189
:10034000C6000895FB019F01E8944230C4F0453295
:10035000B4F44A3029F497FB1EF4909581959F4F91
:10036000642F77270E94D301805D8A330CF0895D6A
:100370008193CB010097A1F716F45DE251931082AF
:10038000C9010C94C301DC01FC01672F7191772333
:10039000E1F7329704C07C916D9370836291AE1740
:1003A000BF07C8F30895AA1BBB1B51E107C0AA1FD2
:1003B000BB1FA617B70710F0A61BB70B881F991F06
:1003C0005A95A9F780959095BC01CD010895F894B0
:0203D000FFCF5D
:1003D200555341525420496E697469616C697A655A
:1003E20064210A000A52464944205461673A2000B7
:1003F2000A0030313233343536373839306162638E
:0404020064656600C7
:00000001FF
